{
  "_format": "hh-sol-artifact-1",
  "contractName": "CRUD_Student",
  "sourceName": "contracts/CRUD_Student.sol",
  "abi": [
    {
      "inputs": [],
      "stateMutability": "nonpayable",
      "type": "constructor"
    },
    {
      "inputs": [
        {
          "internalType": "uint256",
          "name": "_id",
          "type": "uint256"
        },
        {
          "internalType": "string",
          "name": "_name",
          "type": "string"
        }
      ],
      "name": "createStudent",
      "outputs": [
        {
          "internalType": "bool",
          "name": "",
          "type": "bool"
        }
      ],
      "stateMutability": "nonpayable",
      "type": "function"
    },
    {
      "inputs": [
        {
          "internalType": "uint256",
          "name": "_id",
          "type": "uint256"
        }
      ],
      "name": "deleteStudent",
      "outputs": [
        {
          "internalType": "bool",
          "name": "",
          "type": "bool"
        }
      ],
      "stateMutability": "nonpayable",
      "type": "function"
    },
    {
      "inputs": [],
      "name": "getAllStudent",
      "outputs": [
        {
          "components": [
            {
              "internalType": "uint256",
              "name": "id",
              "type": "uint256"
            },
            {
              "internalType": "string",
              "name": "name",
              "type": "string"
            }
          ],
          "internalType": "struct CRUD_Student.Student[]",
          "name": "",
          "type": "tuple[]"
        }
      ],
      "stateMutability": "view",
      "type": "function"
    },
    {
      "inputs": [
        {
          "internalType": "uint256",
          "name": "_id",
          "type": "uint256"
        }
      ],
      "name": "getStudent",
      "outputs": [
        {
          "internalType": "uint256",
          "name": "",
          "type": "uint256"
        },
        {
          "internalType": "string",
          "name": "",
          "type": "string"
        }
      ],
      "stateMutability": "view",
      "type": "function"
    },
    {
      "inputs": [],
      "name": "getTotalStudent",
      "outputs": [
        {
          "internalType": "uint256",
          "name": "",
          "type": "uint256"
        }
      ],
      "stateMutability": "view",
      "type": "function"
    },
    {
      "inputs": [
        {
          "internalType": "uint256",
          "name": "",
          "type": "uint256"
        }
      ],
      "name": "students",
      "outputs": [
        {
          "internalType": "uint256",
          "name": "id",
          "type": "uint256"
        },
        {
          "internalType": "string",
          "name": "name",
          "type": "string"
        }
      ],
      "stateMutability": "view",
      "type": "function"
    },
    {
      "inputs": [],
      "name": "totalStudent",
      "outputs": [
        {
          "internalType": "uint256",
          "name": "",
          "type": "uint256"
        }
      ],
      "stateMutability": "view",
      "type": "function"
    },
    {
      "inputs": [
        {
          "internalType": "uint256",
          "name": "_id",
          "type": "uint256"
        },
        {
          "internalType": "string",
          "name": "_name",
          "type": "string"
        }
      ],
      "name": "updateStudent",
      "outputs": [
        {
          "internalType": "bool",
          "name": "",
          "type": "bool"
        }
      ],
      "stateMutability": "nonpayable",
      "type": "function"
    }
  ],
  "bytecode": "0x608060405234801561001057600080fd5b506000600181905550611271806100286000396000f3fe608060405234801561001057600080fd5b50600436106100885760003560e01c8063642f91631161005b578063642f91631461012a578063b645307d1461015b578063b9f020551461018b578063ce4f23ec146101bb57610088565b8063013dd5591461008d57806306d2e508146100bd57806306ead22e146100db578063133d04601461010c575b600080fd5b6100a760048036038101906100a2919061097b565b6101d9565b6040516100b491906109f2565b60405180910390f35b6100c5610264565b6040516100d29190610a1c565b60405180910390f35b6100f560048036038101906100f09190610a37565b61026a565b604051610103929190610ae3565b60405180910390f35b610114610326565b6040516101219190610c6b565b60405180910390f35b610144600480360381019061013f9190610a37565b610421565b604051610152929190610ae3565b60405180910390f35b61017560048036038101906101709190610a37565b610590565b60405161018291906109f2565b60405180910390f35b6101a560048036038101906101a0919061097b565b6106ed565b6040516101b291906109f2565b60405180910390f35b6101c3610784565b6040516101d09190610a1c565b60405180910390f35b6000806040518060400160405280858152602001848152509050600081908060018154018082558091505060019003906000526020600020906002020160009091909190915060008201518160000155602082015181600101908161023e9190610e99565b5050506001600081548092919061025490610f9a565b9190505550600191505092915050565b60015481565b6000818154811061027a57600080fd5b90600052602060002090600202016000915090508060000154908060010180546102a390610cbc565b80601f01602080910402602001604051908101604052809291908181526020018280546102cf90610cbc565b801561031c5780601f106102f15761010080835404028352916020019161031c565b820191906000526020600020905b8154815290600101906020018083116102ff57829003601f168201915b5050505050905082565b60606000805480602002602001604051908101604052809291908181526020016000905b8282101561041857838290600052602060002090600202016040518060400160405290816000820154815260200160018201805461038790610cbc565b80601f01602080910402602001604051908101604052809291908181526020018280546103b390610cbc565b80156104005780601f106103d557610100808354040283529160200191610400565b820191906000526020600020905b8154815290600101906020018083116103e357829003601f168201915b5050505050815250508152602001906001019061034a565b50505050905090565b6000606060005b60008054905081101561054f57836000828154811061044a57610449610fe2565b5b90600052602060002090600202016000015403610542576000818154811061047557610474610fe2565b5b9060005260206000209060020201600001546000828154811061049b5761049a610fe2565b5b90600052602060002090600202016001018080546104b890610cbc565b80601f01602080910402602001604051908101604052809291908181526020018280546104e490610cbc565b80156105315780601f1061050657610100808354040283529160200191610531565b820191906000526020600020905b81548152906001019060200180831161051457829003601f168201915b50505050509050925092505061058b565b8080600101915050610428565b506040517f08c379a00000000000000000000000000000000000000000000000000000000081526004016105829061105d565b60405180910390fd5b915091565b600080600090505b6000805490508110156106e25782600082815481106105ba576105b9610fe2565b5b906000526020600020906002020160000154036106d55760008190505b60016000805490506105e9919061107d565b81101561066f5760006001826105ff91906110b1565b815481106106105761060f610fe2565b5b90600052602060002090600202016000828154811061063257610631610fe2565b5b9060005260206000209060020201600082015481600001556001820181600101908161065e91906110fb565b5090505080806001019150506105d7565b5060016000815480929190610683906111e3565b9190505550600080548061069a5761069961120c565b5b60019003818190600052602060002090600202016000808201600090556001820160006106c7919061078e565b5050905560019150506106e8565b8080600101915050610598565b50600090505b919050565b600080600090505b60008054905081101561077857836000828154811061071757610716610fe2565b5b9060005260206000209060020201600001540361076b57826000828154811061074357610742610fe2565b5b906000526020600020906002020160010190816107609190610e99565b50600191505061077e565b80806001019150506106f5565b50600090505b92915050565b6000600154905090565b50805461079a90610cbc565b6000825580601f106107ac57506107cb565b601f0160209004906000526020600020908101906107ca91906107ce565b5b50565b5b808211156107e75760008160009055506001016107cf565b5090565b6000604051905090565b600080fd5b600080fd5b6000819050919050565b610812816107ff565b811461081d57600080fd5b50565b60008135905061082f81610809565b92915050565b600080fd5b600080fd5b6000601f19601f8301169050919050565b7f4e487b7100000000000000000000000000000000000000000000000000000000600052604160045260246000fd5b6108888261083f565b810181811067ffffffffffffffff821117156108a7576108a6610850565b5b80604052505050565b60006108ba6107eb565b90506108c6828261087f565b919050565b600067ffffffffffffffff8211156108e6576108e5610850565b5b6108ef8261083f565b9050602081019050919050565b82818337600083830152505050565b600061091e610919846108cb565b6108b0565b90508281526020810184848401111561093a5761093961083a565b5b6109458482856108fc565b509392505050565b600082601f83011261096257610961610835565b5b813561097284826020860161090b565b91505092915050565b60008060408385031215610992576109916107f5565b5b60006109a085828601610820565b925050602083013567ffffffffffffffff8111156109c1576109c06107fa565b5b6109cd8582860161094d565b9150509250929050565b60008115159050919050565b6109ec816109d7565b82525050565b6000602082019050610a0760008301846109e3565b92915050565b610a16816107ff565b82525050565b6000602082019050610a316000830184610a0d565b92915050565b600060208284031215610a4d57610a4c6107f5565b5b6000610a5b84828501610820565b91505092915050565b600081519050919050565b600082825260208201905092915050565b60005b83811015610a9e578082015181840152602081019050610a83565b60008484015250505050565b6000610ab582610a64565b610abf8185610a6f565b9350610acf818560208601610a80565b610ad88161083f565b840191505092915050565b6000604082019050610af86000830185610a0d565b8181036020830152610b0a8184610aaa565b90509392505050565b600081519050919050565b600082825260208201905092915050565b6000819050602082019050919050565b610b48816107ff565b82525050565b600082825260208201905092915050565b6000610b6a82610a64565b610b748185610b4e565b9350610b84818560208601610a80565b610b8d8161083f565b840191505092915050565b6000604083016000830151610bb06000860182610b3f565b5060208301518482036020860152610bc88282610b5f565b9150508091505092915050565b6000610be18383610b98565b905092915050565b6000602082019050919050565b6000610c0182610b13565b610c0b8185610b1e565b935083602082028501610c1d85610b2f565b8060005b85811015610c595784840389528151610c3a8582610bd5565b9450610c4583610be9565b925060208a01995050600181019050610c21565b50829750879550505050505092915050565b60006020820190508181036000830152610c858184610bf6565b905092915050565b7f4e487b7100000000000000000000000000000000000000000000000000000000600052602260045260246000fd5b60006002820490506001821680610cd457607f821691505b602082108103610ce757610ce6610c8d565b5b50919050565b60008190508160005260206000209050919050565b60006020601f8301049050919050565b600082821b905092915050565b600060088302610d4f7fffffffffffffffffffffffffffffffffffffffffffffffffffffffffffffffff82610d12565b610d598683610d12565b95508019841693508086168417925050509392505050565b6000819050919050565b6000610d96610d91610d8c846107ff565b610d71565b6107ff565b9050919050565b6000819050919050565b610db083610d7b565b610dc4610dbc82610d9d565b848454610d1f565b825550505050565b600090565b610dd9610dcc565b610de4818484610da7565b505050565b5b81811015610e0857610dfd600082610dd1565b600181019050610dea565b5050565b601f821115610e4d57610e1e81610ced565b610e2784610d02565b81016020851015610e36578190505b610e4a610e4285610d02565b830182610de9565b50505b505050565b600082821c905092915050565b6000610e7060001984600802610e52565b1980831691505092915050565b6000610e898383610e5f565b9150826002028217905092915050565b610ea282610a64565b67ffffffffffffffff811115610ebb57610eba610850565b5b610ec58254610cbc565b610ed0828285610e0c565b600060209050601f831160018114610f035760008415610ef1578287015190505b610efb8582610e7d565b865550610f63565b601f198416610f1186610ced565b60005b82811015610f3957848901518255600182019150602085019450602081019050610f14565b86831015610f565784890151610f52601f891682610e5f565b8355505b6001600288020188555050505b505050505050565b7f4e487b7100000000000000000000000000000000000000000000000000000000600052601160045260246000fd5b6000610fa5826107ff565b91507fffffffffffffffffffffffffffffffffffffffffffffffffffffffffffffffff8203610fd757610fd6610f6b565b5b600182019050919050565b7f4e487b7100000000000000000000000000000000000000000000000000000000600052603260045260246000fd5b7f53747564656e74206e6f7420666f756e64000000000000000000000000000000600082015250565b6000611047601183610a6f565b915061105282611011565b602082019050919050565b600060208201905081810360008301526110768161103a565b9050919050565b6000611088826107ff565b9150611093836107ff565b92508282039050818111156110ab576110aa610f6b565b5b92915050565b60006110bc826107ff565b91506110c7836107ff565b92508282019050808211156110df576110de610f6b565b5b92915050565b6000815490506110f481610cbc565b9050919050565b8181036111095750506111e1565b611112826110e5565b67ffffffffffffffff81111561112b5761112a610850565b5b6111358254610cbc565b611140828285610e0c565b6000601f83116001811461116f576000841561115d578287015490505b6111678582610e7d565b8655506111da565b601f19841661117d87610ced565b965061118886610ced565b60005b828110156111b05784890154825560018201915060018501945060208101905061118b565b868310156111cd57848901546111c9601f891682610e5f565b8355505b6001600288020188555050505b5050505050505b565b60006111ee826107ff565b91506000820361120157611200610f6b565b5b600182039050919050565b7f4e487b7100000000000000000000000000000000000000000000000000000000600052603160045260246000fdfea2646970667358221220660c7e03412991d11fe9c8f12e703120bf71b1cfd06c91f4f860a0b2cbd6c7d664736f6c63430008180033",
  "linkReferences": {},
  "deployedLinkReferences": {}
}