{
  "_format": "hh-sol-artifact-1",
  "contractName": "CRUD_Student",
  "sourceName": "contracts/CRUD_Student.sol",
  "abi": [
    {
      "inputs": [],
      "stateMutability": "nonpayable",
      "type": "constructor"
    },
    {
      "anonymous": false,
      "inputs": [
        {
          "indexed": false,
          "internalType": "uint256",
          "name": "id",
          "type": "uint256"
        },
        {
          "indexed": false,
          "internalType": "string",
          "name": "name",
          "type": "string"
        }
      ],
      "name": "AddEvent",
      "type": "event"
    },
    {
      "anonymous": false,
      "inputs": [
        {
          "indexed": false,
          "internalType": "uint256",
          "name": "id",
          "type": "uint256"
        }
      ],
      "name": "DeleteEvent",
      "type": "event"
    },
    {
      "anonymous": false,
      "inputs": [
        {
          "indexed": false,
          "internalType": "uint256",
          "name": "id",
          "type": "uint256"
        },
        {
          "indexed": false,
          "internalType": "string",
          "name": "name",
          "type": "string"
        }
      ],
      "name": "UpdateEvent",
      "type": "event"
    },
    {
      "inputs": [
        {
          "internalType": "uint256",
          "name": "id",
          "type": "uint256"
        },
        {
          "internalType": "string",
          "name": "name",
          "type": "string"
        }
      ],
      "name": "addStudent",
      "outputs": [
        {
          "internalType": "bool",
          "name": "",
          "type": "bool"
        }
      ],
      "stateMutability": "nonpayable",
      "type": "function"
    },
    {
      "inputs": [
        {
          "internalType": "uint256",
          "name": "id",
          "type": "uint256"
        }
      ],
      "name": "deleteStudent",
      "outputs": [
        {
          "internalType": "bool",
          "name": "success",
          "type": "bool"
        }
      ],
      "stateMutability": "nonpayable",
      "type": "function"
    },
    {
      "inputs": [],
      "name": "getAllStudents",
      "outputs": [
        {
          "components": [
            {
              "internalType": "uint256",
              "name": "id",
              "type": "uint256"
            },
            {
              "internalType": "string",
              "name": "name",
              "type": "string"
            }
          ],
          "internalType": "struct CRUD_Student.Student[]",
          "name": "",
          "type": "tuple[]"
        }
      ],
      "stateMutability": "view",
      "type": "function"
    },
    {
      "inputs": [
        {
          "internalType": "uint256",
          "name": "id",
          "type": "uint256"
        }
      ],
      "name": "getStudent",
      "outputs": [
        {
          "components": [
            {
              "internalType": "uint256",
              "name": "id",
              "type": "uint256"
            },
            {
              "internalType": "string",
              "name": "name",
              "type": "string"
            }
          ],
          "internalType": "struct CRUD_Student.Student",
          "name": "",
          "type": "tuple"
        }
      ],
      "stateMutability": "view",
      "type": "function"
    },
    {
      "inputs": [],
      "name": "getTotalStudents",
      "outputs": [
        {
          "internalType": "uint256",
          "name": "",
          "type": "uint256"
        }
      ],
      "stateMutability": "view",
      "type": "function"
    },
    {
      "inputs": [
        {
          "internalType": "uint256",
          "name": "id",
          "type": "uint256"
        },
        {
          "internalType": "string",
          "name": "name",
          "type": "string"
        }
      ],
      "name": "updateStudent",
      "outputs": [
        {
          "internalType": "bool",
          "name": "success",
          "type": "bool"
        }
      ],
      "stateMutability": "nonpayable",
      "type": "function"
    }
  ],
  "bytecode": "0x608060405234801561001057600080fd5b5060006001819055506112b1806100286000396000f3fe608060405234801561001057600080fd5b50600436106100625760003560e01c806328bcb51a1461006757806342ecc52a14610085578063642f9163146100b5578063b645307d146100e5578063b9f0205514610115578063e9e3092714610145575b600080fd5b61006f610163565b60405161007c9190610779565b60405180910390f35b61009f600480360381019061009a919061091a565b61016d565b6040516100ac9190610991565b60405180910390f35b6100cf60048036038101906100ca91906109ac565b610231565b6040516100dc9190610aa4565b60405180910390f35b6100ff60048036038101906100fa91906109ac565b610391565b60405161010c9190610991565b60405180910390f35b61012f600480360381019061012a919061091a565b61051e565b60405161013c9190610991565b60405180910390f35b61014d6105ee565b60405161015a9190610bc5565b60405180910390f35b6000600154905090565b600080604051806040016040528085815260200184815250905060008190806001815401808255809150506001900390600052602060002090600202016000909190919091506000820151816000015560208201518160010190816101d29190610df3565b505050600160008154809291906101e890610ef4565b91905055507fb340a519f4c9909a4dfa7dc7adb47bd46fd4dfae3ffebb102f7156ef0df39aa7848460405161021e929190610f86565b60405180910390a1600191505092915050565b6102396106e9565b60005b60015481101561035057826000828154811061025b5761025a610fb6565b5b90600052602060002090600202016000015403610343576000818154811061028657610285610fb6565b5b9060005260206000209060020201604051806040016040529081600082015481526020016001820180546102b990610c16565b80601f01602080910402602001604051908101604052809291908181526020018280546102e590610c16565b80156103325780601f1061030757610100808354040283529160200191610332565b820191906000526020600020905b81548152906001019060200180831161031557829003601f168201915b50505050508152505091505061038c565b808060010191505061023c565b506040517f08c379a000000000000000000000000000000000000000000000000000000000815260040161038390611031565b60405180910390fd5b919050565b600080600080549050116103da576040517f08c379a00000000000000000000000000000000000000000000000000000000081526004016103d19061109d565b60405180910390fd5b60015482111561041f576040517f08c379a000000000000000000000000000000000000000000000000000000000815260040161041690611031565b60405180910390fd5b60008290505b6001805461043391906110bd565b8110156104b957600060018261044991906110f1565b8154811061045a57610459610fb6565b5b90600052602060002090600202016000828154811061047c5761047b610fb6565b5b906000526020600020906002020160008201548160000155600182018160010190816104a8919061113b565b509050508080600101915050610425565b5060008054806104cc576104cb611223565b5b60019003818190600052602060002090600202016000808201600090556001820160006104f99190610703565b505090556001600081548092919061051090611252565b919050555060009050919050565b600080600090505b6000805490508110156105e257836000828154811061054857610547610fb6565b5b906000526020600020906002020160000154036105d557826000828154811061057457610573610fb6565b5b906000526020600020906002020160010190816105919190610df3565b507fa64f1e2e222cd6c66b2443ce9dcb0b4c66af474548fb8490bff9f1667826afb384846040516105c3929190610f86565b60405180910390a160019150506105e8565b8080600101915050610526565b50600090505b92915050565b60606000805480602002602001604051908101604052809291908181526020016000905b828210156106e057838290600052602060002090600202016040518060400160405290816000820154815260200160018201805461064f90610c16565b80601f016020809104026020016040519081016040528092919081815260200182805461067b90610c16565b80156106c85780601f1061069d576101008083540402835291602001916106c8565b820191906000526020600020905b8154815290600101906020018083116106ab57829003601f168201915b50505050508152505081526020019060010190610612565b50505050905090565b604051806040016040528060008152602001606081525090565b50805461070f90610c16565b6000825580601f106107215750610740565b601f01602090049060005260206000209081019061073f9190610743565b5b50565b5b8082111561075c576000816000905550600101610744565b5090565b6000819050919050565b61077381610760565b82525050565b600060208201905061078e600083018461076a565b92915050565b6000604051905090565b600080fd5b600080fd5b6107b181610760565b81146107bc57600080fd5b50565b6000813590506107ce816107a8565b92915050565b600080fd5b600080fd5b6000601f19601f8301169050919050565b7f4e487b7100000000000000000000000000000000000000000000000000000000600052604160045260246000fd5b610827826107de565b810181811067ffffffffffffffff82111715610846576108456107ef565b5b80604052505050565b6000610859610794565b9050610865828261081e565b919050565b600067ffffffffffffffff821115610885576108846107ef565b5b61088e826107de565b9050602081019050919050565b82818337600083830152505050565b60006108bd6108b88461086a565b61084f565b9050828152602081018484840111156108d9576108d86107d9565b5b6108e484828561089b565b509392505050565b600082601f830112610901576109006107d4565b5b81356109118482602086016108aa565b91505092915050565b600080604083850312156109315761093061079e565b5b600061093f858286016107bf565b925050602083013567ffffffffffffffff8111156109605761095f6107a3565b5b61096c858286016108ec565b9150509250929050565b60008115159050919050565b61098b81610976565b82525050565b60006020820190506109a66000830184610982565b92915050565b6000602082840312156109c2576109c161079e565b5b60006109d0848285016107bf565b91505092915050565b6109e281610760565b82525050565b600081519050919050565b600082825260208201905092915050565b60005b83811015610a22578082015181840152602081019050610a07565b60008484015250505050565b6000610a39826109e8565b610a4381856109f3565b9350610a53818560208601610a04565b610a5c816107de565b840191505092915050565b6000604083016000830151610a7f60008601826109d9565b5060208301518482036020860152610a978282610a2e565b9150508091505092915050565b60006020820190508181036000830152610abe8184610a67565b905092915050565b600081519050919050565b600082825260208201905092915050565b6000819050602082019050919050565b6000604083016000830151610b0a60008601826109d9565b5060208301518482036020860152610b228282610a2e565b9150508091505092915050565b6000610b3b8383610af2565b905092915050565b6000602082019050919050565b6000610b5b82610ac6565b610b658185610ad1565b935083602082028501610b7785610ae2565b8060005b85811015610bb35784840389528151610b948582610b2f565b9450610b9f83610b43565b925060208a01995050600181019050610b7b565b50829750879550505050505092915050565b60006020820190508181036000830152610bdf8184610b50565b905092915050565b7f4e487b7100000000000000000000000000000000000000000000000000000000600052602260045260246000fd5b60006002820490506001821680610c2e57607f821691505b602082108103610c4157610c40610be7565b5b50919050565b60008190508160005260206000209050919050565b60006020601f8301049050919050565b600082821b905092915050565b600060088302610ca97fffffffffffffffffffffffffffffffffffffffffffffffffffffffffffffffff82610c6c565b610cb38683610c6c565b95508019841693508086168417925050509392505050565b6000819050919050565b6000610cf0610ceb610ce684610760565b610ccb565b610760565b9050919050565b6000819050919050565b610d0a83610cd5565b610d1e610d1682610cf7565b848454610c79565b825550505050565b600090565b610d33610d26565b610d3e818484610d01565b505050565b5b81811015610d6257610d57600082610d2b565b600181019050610d44565b5050565b601f821115610da757610d7881610c47565b610d8184610c5c565b81016020851015610d90578190505b610da4610d9c85610c5c565b830182610d43565b50505b505050565b600082821c905092915050565b6000610dca60001984600802610dac565b1980831691505092915050565b6000610de38383610db9565b9150826002028217905092915050565b610dfc826109e8565b67ffffffffffffffff811115610e1557610e146107ef565b5b610e1f8254610c16565b610e2a828285610d66565b600060209050601f831160018114610e5d5760008415610e4b578287015190505b610e558582610dd7565b865550610ebd565b601f198416610e6b86610c47565b60005b82811015610e9357848901518255600182019150602085019450602081019050610e6e565b86831015610eb05784890151610eac601f891682610db9565b8355505b6001600288020188555050505b505050505050565b7f4e487b7100000000000000000000000000000000000000000000000000000000600052601160045260246000fd5b6000610eff82610760565b91507fffffffffffffffffffffffffffffffffffffffffffffffffffffffffffffffff8203610f3157610f30610ec5565b5b600182019050919050565b600082825260208201905092915050565b6000610f58826109e8565b610f628185610f3c565b9350610f72818560208601610a04565b610f7b816107de565b840191505092915050565b6000604082019050610f9b600083018561076a565b8181036020830152610fad8184610f4d565b90509392505050565b7f4e487b7100000000000000000000000000000000000000000000000000000000600052603260045260246000fd5b7f53747564656e7420646f6573206e6f7420657869737400000000000000000000600082015250565b600061101b601683610f3c565b915061102682610fe5565b602082019050919050565b6000602082019050818103600083015261104a8161100e565b9050919050565b7f4e6f2073747564656e7420746f2064656c657465000000000000000000000000600082015250565b6000611087601483610f3c565b915061109282611051565b602082019050919050565b600060208201905081810360008301526110b68161107a565b9050919050565b60006110c882610760565b91506110d383610760565b92508282039050818111156110eb576110ea610ec5565b5b92915050565b60006110fc82610760565b915061110783610760565b925082820190508082111561111f5761111e610ec5565b5b92915050565b60008154905061113481610c16565b9050919050565b818103611149575050611221565b61115282611125565b67ffffffffffffffff81111561116b5761116a6107ef565b5b6111758254610c16565b611180828285610d66565b6000601f8311600181146111af576000841561119d578287015490505b6111a78582610dd7565b86555061121a565b601f1984166111bd87610c47565b96506111c886610c47565b60005b828110156111f0578489015482556001820191506001850194506020810190506111cb565b8683101561120d5784890154611209601f891682610db9565b8355505b6001600288020188555050505b5050505050505b565b7f4e487b7100000000000000000000000000000000000000000000000000000000600052603160045260246000fd5b600061125d82610760565b9150600082036112705761126f610ec5565b5b60018203905091905056fea2646970667358221220b7d6b3a0d82c35cffec0e60e6148b33cbda93e1b2406b7d04679949a93a214e264736f6c63430008180033",
  "linkReferences": {},
  "deployedLinkReferences": {}
}